{
  "_format": "hh-sol-artifact-1",
  "contractName": "BorrowYourCar",
  "sourceName": "contracts/BorrowYourCar.sol",
  "abi": [
    {
      "inputs": [],
      "stateMutability": "nonpayable",
      "type": "constructor"
    },
    {
      "anonymous": false,
      "inputs": [
        {
          "indexed": false,
          "internalType": "uint32",
          "name": "carTokenId",
          "type": "uint32"
        },
        {
          "indexed": false,
          "internalType": "address",
          "name": "borrower",
          "type": "address"
        },
        {
          "indexed": false,
          "internalType": "uint256",
          "name": "startTime",
          "type": "uint256"
        },
        {
          "indexed": false,
          "internalType": "uint256",
          "name": "duration",
          "type": "uint256"
        }
      ],
      "name": "CarBorrowed",
      "type": "event"
    },
    {
      "inputs": [
        {
          "internalType": "uint32",
          "name": "carTokenId",
          "type": "uint32"
        },
        {
          "internalType": "address",
          "name": "borrower",
          "type": "address"
        },
        {
          "internalType": "uint256",
          "name": "duration",
          "type": "uint256"
        },
        {
          "internalType": "uint256",
          "name": "price",
          "type": "uint256"
        }
      ],
      "name": "borrowCar",
      "outputs": [],
      "stateMutability": "payable",
      "type": "function"
    },
    {
      "inputs": [],
      "name": "carNum",
      "outputs": [
        {
          "internalType": "uint256",
          "name": "",
          "type": "uint256"
        }
      ],
      "stateMutability": "view",
      "type": "function"
    },
    {
      "inputs": [],
      "name": "carToken",
      "outputs": [
        {
          "internalType": "contract CarToken",
          "name": "",
          "type": "address"
        }
      ],
      "stateMutability": "view",
      "type": "function"
    },
    {
      "inputs": [
        {
          "internalType": "uint256",
          "name": "",
          "type": "uint256"
        }
      ],
      "name": "cars",
      "outputs": [
        {
          "internalType": "address",
          "name": "owner",
          "type": "address"
        },
        {
          "internalType": "address",
          "name": "borrower",
          "type": "address"
        },
        {
          "internalType": "uint256",
          "name": "borrowUntil",
          "type": "uint256"
        }
      ],
      "stateMutability": "view",
      "type": "function"
    },
    {
      "inputs": [],
      "name": "getAvailableCar",
      "outputs": [
        {
          "internalType": "uint32[]",
          "name": "",
          "type": "uint32[]"
        },
        {
          "internalType": "uint256",
          "name": "",
          "type": "uint256"
        }
      ],
      "stateMutability": "view",
      "type": "function"
    },
    {
      "inputs": [
        {
          "internalType": "uint32",
          "name": "carTokenId",
          "type": "uint32"
        }
      ],
      "name": "getBorrower",
      "outputs": [
        {
          "internalType": "address",
          "name": "",
          "type": "address"
        }
      ],
      "stateMutability": "view",
      "type": "function"
    },
    {
      "inputs": [
        {
          "internalType": "uint32",
          "name": "carTokenId",
          "type": "uint32"
        }
      ],
      "name": "getCarInfo",
      "outputs": [
        {
          "internalType": "address",
          "name": "",
          "type": "address"
        },
        {
          "internalType": "address",
          "name": "",
          "type": "address"
        },
        {
          "internalType": "uint256",
          "name": "",
          "type": "uint256"
        }
      ],
      "stateMutability": "view",
      "type": "function"
    },
    {
      "inputs": [
        {
          "internalType": "address",
          "name": "owner",
          "type": "address"
        }
      ],
      "name": "getOwnedCar",
      "outputs": [
        {
          "internalType": "uint32[]",
          "name": "",
          "type": "uint32[]"
        },
        {
          "internalType": "uint256",
          "name": "",
          "type": "uint256"
        }
      ],
      "stateMutability": "view",
      "type": "function"
    },
    {
      "inputs": [
        {
          "internalType": "uint32",
          "name": "carTokenId",
          "type": "uint32"
        }
      ],
      "name": "getOwner",
      "outputs": [
        {
          "internalType": "address",
          "name": "",
          "type": "address"
        }
      ],
      "stateMutability": "view",
      "type": "function"
    },
    {
      "inputs": [
        {
          "internalType": "uint32",
          "name": "carTokenId",
          "type": "uint32"
        }
      ],
      "name": "getUserBorrowUntil",
      "outputs": [
        {
          "internalType": "uint256",
          "name": "",
          "type": "uint256"
        }
      ],
      "stateMutability": "view",
      "type": "function"
    },
    {
      "inputs": [],
      "name": "helloworld",
      "outputs": [
        {
          "internalType": "string",
          "name": "",
          "type": "string"
        }
      ],
      "stateMutability": "pure",
      "type": "function"
    }
  ],
  "bytecode": "0x6080604052600a60015534801561001557600080fd5b506040516100229061049d565b604051809103906000f08015801561003e573d6000803e3d6000fd5b50600260006101000a81548173ffffffffffffffffffffffffffffffffffffffff021916908373ffffffffffffffffffffffffffffffffffffffff16021790555073390b4c4cd89f590a7b112f7447901a84b9bf99c560008080815260200190815260200160002060000160006101000a81548173ffffffffffffffffffffffffffffffffffffffff021916908373ffffffffffffffffffffffffffffffffffffffff16021790555073390b4c4cd89f590a7b112f7447901a84b9bf99c56000806001815260200190815260200160002060000160006101000a81548173ffffffffffffffffffffffffffffffffffffffff021916908373ffffffffffffffffffffffffffffffffffffffff16021790555073390b4c4cd89f590a7b112f7447901a84b9bf99c56000806002815260200190815260200160002060000160006101000a81548173ffffffffffffffffffffffffffffffffffffffff021916908373ffffffffffffffffffffffffffffffffffffffff16021790555073c8d4f226ec00fa7794e86fa4b9913e4515ca08ca6000806003815260200190815260200160002060000160006101000a81548173ffffffffffffffffffffffffffffffffffffffff021916908373ffffffffffffffffffffffffffffffffffffffff16021790555073c8d4f226ec00fa7794e86fa4b9913e4515ca08ca6000806004815260200190815260200160002060000160006101000a81548173ffffffffffffffffffffffffffffffffffffffff021916908373ffffffffffffffffffffffffffffffffffffffff16021790555073c8d4f226ec00fa7794e86fa4b9913e4515ca08ca6000806005815260200190815260200160002060000160006101000a81548173ffffffffffffffffffffffffffffffffffffffff021916908373ffffffffffffffffffffffffffffffffffffffff16021790555073c8d4f226ec00fa7794e86fa4b9913e4515ca08ca6000806006815260200190815260200160002060000160006101000a81548173ffffffffffffffffffffffffffffffffffffffff021916908373ffffffffffffffffffffffffffffffffffffffff160217905550736385585f59a32867568c42127cc8c620a7a642286000806007815260200190815260200160002060000160006101000a81548173ffffffffffffffffffffffffffffffffffffffff021916908373ffffffffffffffffffffffffffffffffffffffff160217905550736385585f59a32867568c42127cc8c620a7a642286000806008815260200190815260200160002060000160006101000a81548173ffffffffffffffffffffffffffffffffffffffff021916908373ffffffffffffffffffffffffffffffffffffffff160217905550736385585f59a32867568c42127cc8c620a7a642286000806009815260200190815260200160002060000160006101000a81548173ffffffffffffffffffffffffffffffffffffffff021916908373ffffffffffffffffffffffffffffffffffffffff1602179055506104aa565b611670806116fc83390190565b611243806104b96000396000f3fe60806040526004361061009c5760003560e01c80636d376af5116100645780636d376af51461018e578063a7a36996146101b9578063d530bf33146101f6578063f7746e3614610221578063fa24dfeb14610260578063fc3b6fb01461029e5761009c565b80630273828b146100a15780632f2f4859146100de5780634a0cf9d914610109578063621b23e214610135578063666364ad14610172575b600080fd5b3480156100ad57600080fd5b506100c860048036038101906100c39190610b20565b6102dd565b6040516100d59190610b66565b60405180910390f35b3480156100ea57600080fd5b506100f3610302565b6040516101009190610c11565b60405180910390f35b34801561011557600080fd5b5061011e61033f565b60405161012c929190610cf1565b60405180910390f35b34801561014157600080fd5b5061015c60048036038101906101579190610b20565b610497565b6040516101699190610d62565b60405180910390f35b61018c60048036038101906101879190610dd5565b6104dc565b005b34801561019a57600080fd5b506101a3610800565b6040516101b09190610b66565b60405180910390f35b3480156101c557600080fd5b506101e060048036038101906101db9190610b20565b610806565b6040516101ed9190610d62565b60405180910390f35b34801561020257600080fd5b5061020b610877565b6040516102189190610e9b565b60405180910390f35b34801561022d57600080fd5b5061024860048036038101906102439190610eb6565b61089d565b60405161025793929190610ee3565b60405180910390f35b34801561026c57600080fd5b5061028760048036038101906102829190610f1a565b610907565b604051610295929190610cf1565b60405180910390f35b3480156102aa57600080fd5b506102c560048036038101906102c09190610b20565b610a39565b6040516102d493929190610ee3565b60405180910390f35b60008060008363ffffffff168152602001908152602001600020600201549050919050565b60606040518060400160405280600b81526020017f68656c6c6f20776f726c64000000000000000000000000000000000000000000815250905090565b606060008060015467ffffffffffffffff8111156103605761035f610f47565b5b60405190808252806020026020018201604052801561038e5781602001602082028036833780820191505090505b5090506000805b6001548163ffffffff16101561048a57600073ffffffffffffffffffffffffffffffffffffffff166000808363ffffffff16815260200190815260200160002060010160009054906101000a900473ffffffffffffffffffffffffffffffffffffffff1673ffffffffffffffffffffffffffffffffffffffff1614806104355750426000808363ffffffff16815260200190815260200160002060020154105b15610477578083838151811061044e5761044d610f76565b5b602002602001019063ffffffff16908163ffffffff1681525050818061047390610fd4565b9250505b80806104829061101c565b915050610395565b5081819350935050509091565b60008060008363ffffffff16815260200190815260200160002060000160009054906101000a900473ffffffffffffffffffffffffffffffffffffffff169050919050565b6000808563ffffffff16815260200190815260200160002060000160009054906101000a900473ffffffffffffffffffffffffffffffffffffffff1673ffffffffffffffffffffffffffffffffffffffff168373ffffffffffffffffffffffffffffffffffffffff1603610585576040517f08c379a000000000000000000000000000000000000000000000000000000000815260040161057c90611094565b60405180910390fd5b600073ffffffffffffffffffffffffffffffffffffffff166000808663ffffffff16815260200190815260200160002060010160009054906101000a900473ffffffffffffffffffffffffffffffffffffffff1673ffffffffffffffffffffffffffffffffffffffff1614806106155750426000808663ffffffff16815260200190815260200160002060020154105b610654576040517f08c379a000000000000000000000000000000000000000000000000000000000815260040161064b90611100565b60405180910390fd5b826000808663ffffffff16815260200190815260200160002060010160006101000a81548173ffffffffffffffffffffffffffffffffffffffff021916908373ffffffffffffffffffffffffffffffffffffffff160217905550600042905082816106bf9190611120565b6000808763ffffffff168152602001908152602001600020600201819055507f7451ef7dffbc2d6f0fa7de7269edbe0df1310c12f853bb3899f0c2bf76463440858583866040516107139493929190611163565b60405180910390a1600260009054906101000a900473ffffffffffffffffffffffffffffffffffffffff1673ffffffffffffffffffffffffffffffffffffffff166323b872dd856000808963ffffffff16815260200190815260200160002060000160009054906101000a900473ffffffffffffffffffffffffffffffffffffffff16856040518463ffffffff1660e01b81526004016107b593929190610ee3565b6020604051808303816000875af11580156107d4573d6000803e3d6000fd5b505050506040513d601f19601f820116820180604052508101906107f891906111e0565b505050505050565b60015481565b6000426000808463ffffffff168152602001908152602001600020600201541061086d576000808363ffffffff16815260200190815260200160002060010160009054906101000a900473ffffffffffffffffffffffffffffffffffffffff169050610872565b600090505b919050565b600260009054906101000a900473ffffffffffffffffffffffffffffffffffffffff1681565b60006020528060005260406000206000915090508060000160009054906101000a900473ffffffffffffffffffffffffffffffffffffffff16908060010160009054906101000a900473ffffffffffffffffffffffffffffffffffffffff16908060020154905083565b606060008060015467ffffffffffffffff81111561092857610927610f47565b5b6040519080825280602002602001820160405280156109565781602001602082028036833780820191505090505b5090506000805b6001548163ffffffff161015610a2b578573ffffffffffffffffffffffffffffffffffffffff166000808363ffffffff16815260200190815260200160002060000160009054906101000a900473ffffffffffffffffffffffffffffffffffffffff1673ffffffffffffffffffffffffffffffffffffffff1603610a1857808383815181106109ef576109ee610f76565b5b602002602001019063ffffffff16908163ffffffff16815250508180610a1490610fd4565b9250505b8080610a239061101c565b91505061095d565b508181935093505050915091565b60008060008060008563ffffffff16815260200190815260200160002060000160009054906101000a900473ffffffffffffffffffffffffffffffffffffffff166000808663ffffffff16815260200190815260200160002060010160009054906101000a900473ffffffffffffffffffffffffffffffffffffffff166000808763ffffffff168152602001908152602001600020600201549250925092509193909250565b600080fd5b600063ffffffff82169050919050565b610afd81610ae4565b8114610b0857600080fd5b50565b600081359050610b1a81610af4565b92915050565b600060208284031215610b3657610b35610adf565b5b6000610b4484828501610b0b565b91505092915050565b6000819050919050565b610b6081610b4d565b82525050565b6000602082019050610b7b6000830184610b57565b92915050565b600081519050919050565b600082825260208201905092915050565b60005b83811015610bbb578082015181840152602081019050610ba0565b60008484015250505050565b6000601f19601f8301169050919050565b6000610be382610b81565b610bed8185610b8c565b9350610bfd818560208601610b9d565b610c0681610bc7565b840191505092915050565b60006020820190508181036000830152610c2b8184610bd8565b905092915050565b600081519050919050565b600082825260208201905092915050565b6000819050602082019050919050565b610c6881610ae4565b82525050565b6000610c7a8383610c5f565b60208301905092915050565b6000602082019050919050565b6000610c9e82610c33565b610ca88185610c3e565b9350610cb383610c4f565b8060005b83811015610ce4578151610ccb8882610c6e565b9750610cd683610c86565b925050600181019050610cb7565b5085935050505092915050565b60006040820190508181036000830152610d0b8185610c93565b9050610d1a6020830184610b57565b9392505050565b600073ffffffffffffffffffffffffffffffffffffffff82169050919050565b6000610d4c82610d21565b9050919050565b610d5c81610d41565b82525050565b6000602082019050610d776000830184610d53565b92915050565b610d8681610d41565b8114610d9157600080fd5b50565b600081359050610da381610d7d565b92915050565b610db281610b4d565b8114610dbd57600080fd5b50565b600081359050610dcf81610da9565b92915050565b60008060008060808587031215610def57610dee610adf565b5b6000610dfd87828801610b0b565b9450506020610e0e87828801610d94565b9350506040610e1f87828801610dc0565b9250506060610e3087828801610dc0565b91505092959194509250565b6000819050919050565b6000610e61610e5c610e5784610d21565b610e3c565b610d21565b9050919050565b6000610e7382610e46565b9050919050565b6000610e8582610e68565b9050919050565b610e9581610e7a565b82525050565b6000602082019050610eb06000830184610e8c565b92915050565b600060208284031215610ecc57610ecb610adf565b5b6000610eda84828501610dc0565b91505092915050565b6000606082019050610ef86000830186610d53565b610f056020830185610d53565b610f126040830184610b57565b949350505050565b600060208284031215610f3057610f2f610adf565b5b6000610f3e84828501610d94565b91505092915050565b7f4e487b7100000000000000000000000000000000000000000000000000000000600052604160045260246000fd5b7f4e487b7100000000000000000000000000000000000000000000000000000000600052603260045260246000fd5b7f4e487b7100000000000000000000000000000000000000000000000000000000600052601160045260246000fd5b6000610fdf82610b4d565b91507fffffffffffffffffffffffffffffffffffffffffffffffffffffffffffffffff820361101157611010610fa5565b5b600182019050919050565b600061102782610ae4565b915063ffffffff820361103d5761103c610fa5565b5b600182019050919050565b7f596f752063616e277420626f72726f7720796f7572206f776e20636172210000600082015250565b600061107e601e83610b8c565b915061108982611048565b602082019050919050565b600060208201905081810360008301526110ad81611071565b9050919050565b7f546865206361722063616e277420626520626f72726f77656400000000000000600082015250565b60006110ea601983610b8c565b91506110f5826110b4565b602082019050919050565b60006020820190508181036000830152611119816110dd565b9050919050565b600061112b82610b4d565b915061113683610b4d565b925082820190508082111561114e5761114d610fa5565b5b92915050565b61115d81610ae4565b82525050565b60006080820190506111786000830187611154565b6111856020830186610d53565b6111926040830185610b57565b61119f6060830184610b57565b95945050505050565b60008115159050919050565b6111bd816111a8565b81146111c857600080fd5b50565b6000815190506111da816111b4565b92915050565b6000602082840312156111f6576111f5610adf565b5b6000611204848285016111cb565b9150509291505056fea264697066735822122004952c55c75e55248dd56f20fc080e69299f3a410eba47d5a78bccd02410218b64736f6c6343000814003360806040523480156200001157600080fd5b506040518060400160405280600981526020017f43617220546f6b656e00000000000000000000000000000000000000000000008152506040518060400160405280600281526020017f435400000000000000000000000000000000000000000000000000000000000081525081600390816200008f919062000324565b508060049081620000a1919062000324565b5050506200040b565b600081519050919050565b7f4e487b7100000000000000000000000000000000000000000000000000000000600052604160045260246000fd5b7f4e487b7100000000000000000000000000000000000000000000000000000000600052602260045260246000fd5b600060028204905060018216806200012c57607f821691505b602082108103620001425762000141620000e4565b5b50919050565b60008190508160005260206000209050919050565b60006020601f8301049050919050565b600082821b905092915050565b600060088302620001ac7fffffffffffffffffffffffffffffffffffffffffffffffffffffffffffffffff826200016d565b620001b886836200016d565b95508019841693508086168417925050509392505050565b6000819050919050565b6000819050919050565b600062000205620001ff620001f984620001d0565b620001da565b620001d0565b9050919050565b6000819050919050565b6200022183620001e4565b6200023962000230826200020c565b8484546200017a565b825550505050565b600090565b6200025062000241565b6200025d81848462000216565b505050565b5b8181101562000285576200027960008262000246565b60018101905062000263565b5050565b601f821115620002d4576200029e8162000148565b620002a9846200015d565b81016020851015620002b9578190505b620002d1620002c8856200015d565b83018262000262565b50505b505050565b600082821c905092915050565b6000620002f960001984600802620002d9565b1980831691505092915050565b6000620003148383620002e6565b9150826002028217905092915050565b6200032f82620000aa565b67ffffffffffffffff8111156200034b576200034a620000b5565b5b62000357825462000113565b6200036482828562000289565b600060209050601f8311600181146200039c576000841562000387578287015190505b62000393858262000306565b86555062000403565b601f198416620003ac8662000148565b60005b82811015620003d657848901518255600182019150602085019450602081019050620003af565b86831015620003f65784890151620003f2601f891682620002e6565b8355505b6001600288020188555050505b505050505050565b611255806200041b6000396000f3fe608060405234801561001057600080fd5b506004361061009e5760003560e01c80633884d635116100665780633884d6351461015d57806370a082311461016757806395d89b4114610197578063a9059cbb146101b5578063dd62ed3e146101e55761009e565b806306fdde03146100a3578063095ea7b3146100c157806318160ddd146100f157806323b872dd1461010f578063313ce5671461013f575b600080fd5b6100ab610215565b6040516100b89190610c57565b60405180910390f35b6100db60048036038101906100d69190610d12565b6102a7565b6040516100e89190610d6d565b60405180910390f35b6100f96102ca565b6040516101069190610d97565b60405180910390f35b61012960048036038101906101249190610db2565b6102d4565b6040516101369190610d6d565b60405180910390f35b610147610303565b6040516101549190610e21565b60405180910390f35b61016561030c565b005b610181600480360381019061017c9190610e3c565b610423565b60405161018e9190610d97565b60405180910390f35b61019f61046b565b6040516101ac9190610c57565b60405180910390f35b6101cf60048036038101906101ca9190610d12565b6104fd565b6040516101dc9190610d6d565b60405180910390f35b6101ff60048036038101906101fa9190610e69565b610520565b60405161020c9190610d97565b60405180910390f35b60606003805461022490610ed8565b80601f016020809104026020016040519081016040528092919081815260200182805461025090610ed8565b801561029d5780601f106102725761010080835404028352916020019161029d565b820191906000526020600020905b81548152906001019060200180831161028057829003601f168201915b5050505050905090565b6000806102b26105a7565b90506102bf8185856105af565b600191505092915050565b6000600254905090565b6000806102df6105a7565b90506102ec8582856105c1565b6102f7858585610655565b60019150509392505050565b60006012905090565b60001515600560003373ffffffffffffffffffffffffffffffffffffffff1673ffffffffffffffffffffffffffffffffffffffff16815260200190815260200160002060009054906101000a900460ff1615151461039f576040517f08c379a000000000000000000000000000000000000000000000000000000000815260040161039690610f7b565b60405180910390fd5b6001600560003373ffffffffffffffffffffffffffffffffffffffff1673ffffffffffffffffffffffffffffffffffffffff16815260200190815260200160002060006101000a81548160ff02191690831515021790555061042133610403610303565b600a61040f91906110fd565b61271061041c9190611148565b610749565b565b60008060008373ffffffffffffffffffffffffffffffffffffffff1673ffffffffffffffffffffffffffffffffffffffff168152602001908152602001600020549050919050565b60606004805461047a90610ed8565b80601f01602080910402602001604051908101604052809291908181526020018280546104a690610ed8565b80156104f35780601f106104c8576101008083540402835291602001916104f3565b820191906000526020600020905b8154815290600101906020018083116104d657829003601f168201915b5050505050905090565b6000806105086105a7565b9050610515818585610655565b600191505092915050565b6000600160008473ffffffffffffffffffffffffffffffffffffffff1673ffffffffffffffffffffffffffffffffffffffff16815260200190815260200160002060008373ffffffffffffffffffffffffffffffffffffffff1673ffffffffffffffffffffffffffffffffffffffff16815260200190815260200160002054905092915050565b600033905090565b6105bc83838360016107cb565b505050565b60006105cd8484610520565b90507fffffffffffffffffffffffffffffffffffffffffffffffffffffffffffffffff811461064f578181101561063f578281836040517ffb8f41b200000000000000000000000000000000000000000000000000000000815260040161063693929190611199565b60405180910390fd5b61064e848484840360006107cb565b5b50505050565b600073ffffffffffffffffffffffffffffffffffffffff168373ffffffffffffffffffffffffffffffffffffffff16036106c75760006040517f96c6fd1e0000000000000000000000000000000000000000000000000000000081526004016106be91906111d0565b60405180910390fd5b600073ffffffffffffffffffffffffffffffffffffffff168273ffffffffffffffffffffffffffffffffffffffff16036107395760006040517fec442f0500000000000000000000000000000000000000000000000000000000815260040161073091906111d0565b60405180910390fd5b6107448383836109a2565b505050565b600073ffffffffffffffffffffffffffffffffffffffff168273ffffffffffffffffffffffffffffffffffffffff16036107bb5760006040517fec442f050000000000000000000000000000000000000000000000000000000081526004016107b291906111d0565b60405180910390fd5b6107c7600083836109a2565b5050565b600073ffffffffffffffffffffffffffffffffffffffff168473ffffffffffffffffffffffffffffffffffffffff160361083d5760006040517fe602df0500000000000000000000000000000000000000000000000000000000815260040161083491906111d0565b60405180910390fd5b600073ffffffffffffffffffffffffffffffffffffffff168373ffffffffffffffffffffffffffffffffffffffff16036108af5760006040517f94280d620000000000000000000000000000000000000000000000000000000081526004016108a691906111d0565b60405180910390fd5b81600160008673ffffffffffffffffffffffffffffffffffffffff1673ffffffffffffffffffffffffffffffffffffffff16815260200190815260200160002060008573ffffffffffffffffffffffffffffffffffffffff1673ffffffffffffffffffffffffffffffffffffffff16815260200190815260200160002081905550801561099c578273ffffffffffffffffffffffffffffffffffffffff168473ffffffffffffffffffffffffffffffffffffffff167f8c5be1e5ebec7d5bd14f71427d1e84f3dd0314c0f7b2291e5b200ac8c7c3b925846040516109939190610d97565b60405180910390a35b50505050565b600073ffffffffffffffffffffffffffffffffffffffff168373ffffffffffffffffffffffffffffffffffffffff16036109f45780600260008282546109e891906111eb565b92505081905550610ac7565b60008060008573ffffffffffffffffffffffffffffffffffffffff1673ffffffffffffffffffffffffffffffffffffffff16815260200190815260200160002054905081811015610a80578381836040517fe450d38c000000000000000000000000000000000000000000000000000000008152600401610a7793929190611199565b60405180910390fd5b8181036000808673ffffffffffffffffffffffffffffffffffffffff1673ffffffffffffffffffffffffffffffffffffffff16815260200190815260200160002081905550505b600073ffffffffffffffffffffffffffffffffffffffff168273ffffffffffffffffffffffffffffffffffffffff1603610b105780600260008282540392505081905550610b5d565b806000808473ffffffffffffffffffffffffffffffffffffffff1673ffffffffffffffffffffffffffffffffffffffff168152602001908152602001600020600082825401925050819055505b8173ffffffffffffffffffffffffffffffffffffffff168373ffffffffffffffffffffffffffffffffffffffff167fddf252ad1be2c89b69c2b068fc378daa952ba7f163c4a11628f55a4df523b3ef83604051610bba9190610d97565b60405180910390a3505050565b600081519050919050565b600082825260208201905092915050565b60005b83811015610c01578082015181840152602081019050610be6565b60008484015250505050565b6000601f19601f8301169050919050565b6000610c2982610bc7565b610c338185610bd2565b9350610c43818560208601610be3565b610c4c81610c0d565b840191505092915050565b60006020820190508181036000830152610c718184610c1e565b905092915050565b600080fd5b600073ffffffffffffffffffffffffffffffffffffffff82169050919050565b6000610ca982610c7e565b9050919050565b610cb981610c9e565b8114610cc457600080fd5b50565b600081359050610cd681610cb0565b92915050565b6000819050919050565b610cef81610cdc565b8114610cfa57600080fd5b50565b600081359050610d0c81610ce6565b92915050565b60008060408385031215610d2957610d28610c79565b5b6000610d3785828601610cc7565b9250506020610d4885828601610cfd565b9150509250929050565b60008115159050919050565b610d6781610d52565b82525050565b6000602082019050610d826000830184610d5e565b92915050565b610d9181610cdc565b82525050565b6000602082019050610dac6000830184610d88565b92915050565b600080600060608486031215610dcb57610dca610c79565b5b6000610dd986828701610cc7565b9350506020610dea86828701610cc7565b9250506040610dfb86828701610cfd565b9150509250925092565b600060ff82169050919050565b610e1b81610e05565b82525050565b6000602082019050610e366000830184610e12565b92915050565b600060208284031215610e5257610e51610c79565b5b6000610e6084828501610cc7565b91505092915050565b60008060408385031215610e8057610e7f610c79565b5b6000610e8e85828601610cc7565b9250506020610e9f85828601610cc7565b9150509250929050565b7f4e487b7100000000000000000000000000000000000000000000000000000000600052602260045260246000fd5b60006002820490506001821680610ef057607f821691505b602082108103610f0357610f02610ea9565b5b50919050565b7f596f752068617320616c72656164792067657420696e697469616c20746f6b6560008201527f6e21000000000000000000000000000000000000000000000000000000000000602082015250565b6000610f65602283610bd2565b9150610f7082610f09565b604082019050919050565b60006020820190508181036000830152610f9481610f58565b9050919050565b7f4e487b7100000000000000000000000000000000000000000000000000000000600052601160045260246000fd5b60008160011c9050919050565b6000808291508390505b600185111561102157808604811115610ffd57610ffc610f9b565b5b600185161561100c5780820291505b808102905061101a85610fca565b9450610fe1565b94509492505050565b60008261103a57600190506110f6565b8161104857600090506110f6565b816001811461105e576002811461106857611097565b60019150506110f6565b60ff84111561107a57611079610f9b565b5b8360020a91508482111561109157611090610f9b565b5b506110f6565b5060208310610133831016604e8410600b84101617156110cc5782820a9050838111156110c7576110c6610f9b565b5b6110f6565b6110d98484846001610fd7565b925090508184048111156110f0576110ef610f9b565b5b81810290505b9392505050565b600061110882610cdc565b915061111383610e05565b92506111407fffffffffffffffffffffffffffffffffffffffffffffffffffffffffffffffff848461102a565b905092915050565b600061115382610cdc565b915061115e83610cdc565b925082820261116c81610cdc565b9150828204841483151761118357611182610f9b565b5b5092915050565b61119381610c9e565b82525050565b60006060820190506111ae600083018661118a565b6111bb6020830185610d88565b6111c86040830184610d88565b949350505050565b60006020820190506111e5600083018461118a565b92915050565b60006111f682610cdc565b915061120183610cdc565b925082820190508082111561121957611218610f9b565b5b9291505056fea2646970667358221220d643b8a69fc17ee25c2e69ce61b85bfa12cd0dd97f3e71b09e67bc013c654b2364736f6c63430008140033",
  "linkReferences": {},
  "deployedLinkReferences": {}
}